:100000000A128A110C280134FE00030EF0000A08BF
:10001000F1000A128A151F2B0A128A110F28831366
:10002000C030FD001730FE00E730FF00B430840020
:100030000A128A157D210A128A116930FD000930E1
:10004000FE004330FF005F3084000A128A157D21D4
:100050000A128A110A128A1103200A128A11FB005D
:10006000A0308400B4300A168A11AC270A128A1113
:10007000453084005F300A168A11AC270A128A11B3
:10008000F901FA0183010A128A1146288312031327
:100090006508BD006608BE006708BF000230B900F1
:1000A0003908C100C0010A128A159A220A128A115F
:1000B0003D3083120313A4000030A500A6010A12EC
:1000C0008A1569260A128A11323083120313B90085
:1000D0003908F20000300A128A15C5220A128A1164
:1000E000343083120313B9003908F20001300A12C8
:1000F0008A15C5220A128A11323083120313B900FD
:100100003908F20002300A128A15C5220A128A1131
:10011000343083120313B9003908F20003300A1295
:100120008A15C5220A128A110A3083120313A0000D
:100130000030A1000A128A1567210A128A11730879
:1001400083120313A3007208A2000A128A15C523A2
:100150000A128A11831203132008B9003908C30058
:1001600064304302031CB528B628BA286330B900AE
:100170003908C30001300A128A1570220A128A1146
:1001800083120313B9003908C4003E304406031D2E
:10019000CA28CB28E5281630F2008930F3003D301C
:1001A0000A128A1549220A128A113D30831203135A
:1001B000A4000030A5004308B9003908A6000A12BF
:1001C0008A1569260A128A11C42A3D304406031D85
:1001D000EA28EB281929063040020318F028F128F4
:1001E00019294008B9003907B43E84008313000878
:1001F000F200840A00088403F3003D300A128A15D5
:1002000049220A128A113D3083120313A4000030E0
:10021000A5004308B9003908A6000A128A15692604
:100220000A128A11013083120313B9003908C0077A
:10023000C42A3B304406031D1E291F2948294008B3
:1002400003192329242948290130C0024008B90094
:100250003907B43E840083130008F200840A0008C2
:100260008403F3003D300A128A1549220A128A11CA
:100270003D3083120313A4000030A5004308B900E9
:100280003908A6000A128A1569260A128A11C42A98
:1002900002304106031D4D294E298F29373044066F
:1002A0000319532954295A292F304406031D59296B
:1002B0005A298F290A168A11F3270A128A116630E1
:1002C000F6008830F700803083120313B900390834
:1002D000F8000A128A11D1270A128A11F201C630D7
:1002E0000A128A1506220A128A11F2010F300A1226
:1002F0008A1506220A128A11A53083120313B90047
:10030000B90B80298329043083120313B9003908FB
:10031000C1001130B9003908C2001215C42A0630D4
:100320004106031D94299529C42A1F304406031D44
:100330009A299B29C42AF5290A168A11F3270A1239
:100340008A117730F6008830F7008030831203136B
:10035000B9003908F8000A128A11D1270A128A1145
:10036000083083120313B9003908C1001530B900F1
:100370003908C200C42A2530A4008930A5004308EA
:10038000B9003908A6000A128A1569260A128A11CC
:100390000A168A11F3270A128A110A3083120313EC
:1003A000B9003908C1001730B9003908C200C42AA1
:1003B0002B30A4008930A5004308B9003908A600F5
:1003C0000A128A1569260A128A110A168A11F32757
:1003D0000A128A110C3083120313B9003908C100C4
:1003E0001930B9003908C200C42A3C08B900BA0162
:1003F0003A08003A0319FD29082A3908003A031976
:100400009C29013A0319BB29033A0319D829082A60
:10041000C42A4308B9003908A7003D300A128A15DA
:100420000A260A128A11E22A0230B9003908C100EC
:100430001211F2010C300A128A1506220A128A11D0
:10044000A53083120313B900B90B242A272AE22A04
:100450000630B9003908C1001330B9003908C200AC
:100460000A168A11F3270A128A11F2010C300A12B5
:100470008A1506220A128A11A53083120313B900C5
:10048000B90B402A432A83120313121194284208FD
:10049000B9003908A60044080A128A11EC220A128F
:1004A0008A1183120313BA00BB013B08003A0319F7
:1004B0005A2AE22A3A08023A0319142A133A03196B
:1004C000282AE22A4208B9003908A60044080A127C
:1004D0008A1120270A128A1183120313BA003A08DC
:1004E000BC00E22A4208B9003908A60044080A12F2
:1004F0008A11EC250A128A11E22A42080A128A1588
:1005000086230A128A11113A031D872A882AE22AB1
:100510000A168A11F3270A128A110630831203136E
:10052000B9003908C1001330B9003908C200942855
:100530000A168A11F3270A128A11F2010C300A12E4
:100540008A1506220A128A11A53083120313B900F4
:10055000B90BA82AAB2A8D2A4208B9003908A6008F
:1005600044080A128A1189240A128A118312031379
:10057000BA00BB013B08003A0319BF2AE22A3A0835
:10058000113A0319982AE22A831203134108B90089
:10059000BA013A08003A0319CE2AE22A3908023A87
:1005A0000319092A063A0319472A023A0319622A4B
:1005B0000E3A0319722A023A03197D2A063A0319E0
:1005C000AC2AE22AFF3083120313B9003908C200B3
:1005D00094280A128A110C2883120313AE001130DA
:1005E0002606031DF42AF52A062B0530A700270846
:1005F000D3003330A7002708D100D001DB01DC0194
:10060000DD01DE013F30A7002708AE005308031DBF
:100610000A2B0B2B0D2B0230882C37302E06031D96
:10062000122B132B372B043050020318182B192BC5
:10063000372B3430A70050085B3E84002708831313
:1006400080005008C63EA7002708A4002A300A12DE
:100650008A158C210A128A11013083120313A70014
:100660002708D0070530A7002708D300572B2F30C5
:100670002E06031D3C2B3D2B572B04305002031834
:10068000422B432B572B3230A70050085B3E84008F
:100690002708831380005008C63EA7002708A4003F
:1006A0002A300A128A158C210A128A112C2B043046
:1006B0005006031D5C2B5D2B872CAF01B00183120C
:1006C00003132F080A128A15B6210A128A118312FF
:1006D0000313A7002F082A3E8400270883138000F5
:1006E0000130AF070318B00A0030B0073008803A75
:1006F000FF0080307F02031D7F2B04302F02031C7C
:10070000822B832B5F2B2A30F2000030F300043061
:10071000F4000030F5005B300A128A1555240A12E5
:100720008A1172087304031D962B972B992B113095
:10073000882C013083120313D10230305106031D7F
:10074000A22BA32B1A2CF2010C300A128A150622B6
:100750000A128A11A53083120313A700A70BAE2B30
:10076000B12B3330F6008830F7008030831203134A
:10077000A7002708F8000A128A11D1270A128A1145
:100780001130F6008830F700C03083120313A70041
:100790002708F8000A128A11D1270A128A113C3060
:1007A00083120313A7002708D2000E2CCB30A7001A
:1007B0002708A4000A30F2000030F3005208A80015
:1007C000A9012808F4002908F5000A128A159727BC
:1007D0000A128A117208303E0A128A158C210A12F6
:1007E0008A11CC3083120313A7002708A4000A3013
:1007F000F2000030F3005208A800A9012808F40014
:100800002908F5000A128A1552250A128A1172085F
:10081000303E0A128A158C210A128A1183120313A0
:100820005208031D142C152CD62B3330A700270893
:10083000D100572C0A168A11F3270A128A11883020
:10084000F6008830F700803083120313A7002708D2
:10085000F8000A128A11D1270A128A11C0308312B5
:100860000313A7002708A40051080A128A158C2137
:100870000A128A115530F6008830F700C130831211
:100880000313A7002708F8000A128A11D1270A12B9
:100890008A114D3083120313A9001930A8004F307C
:1008A000A700A70B512CA80B512CA90B512C0A16F1
:1008B0008A11F3270A128A11C630F6008830F70031
:1008C000803083120313A7002708F8000A128A1148
:1008D000D1270A128A11F201C6300A128A1506229D
:1008E0000A128A11F2010F300A128A1506220A1220
:1008F0008A11A53083120313A700A70B7D2C802C2F
:1009000083120313D0010530A7002708D30010304D
:10091000080083120313AA0019302606031D912C28
:10092000922C982CCA01CB010130C8000030C900BC
:100930004B08803AFF0080307F02031DA12C043059
:100940004A020318A42CA52CCB2C831203134808AD
:1009500049040319AC2CAD2CCB2CC801C90147307C
:10096000F6008830F7008030A7002708F8000A1248
:100970008A11D1270A128A11F201C0300A128A158F
:1009800006220A128A11F2010F300A128A15062273
:100990000A128A11082D831203134B08803AFF00B4
:1009A00080307F02031DD62C04304A02031CD92C50
:1009B000DA2C082D8312031348084904031DE12C87
:1009C000E22C082D0130C8000030C9000A168A1137
:1009D000F3270A128A114430F6008830F70080307D
:1009E00083120313A7002708F8000A128A11D127DF
:1009F0000A128A11F201C0300A128A1506220A125E
:100A00008A11F2010F300A128A1506220A128A117F
:100A10003730831203132A06031D0F2D102D2D2DA1
:100A20003430A7004A08AB3E8400270883138000B7
:100A30004A080339C03EA7002708A4002A300A123A
:100A40008A158C210A128A11013083120313CA07F6
:100A50000318CB0A0030CB07482D2F302A06031D80
:100A6000322D332D482D3230A7004A08AB3E84008A
:100A70002708831380004A080339C03EA7002708CF
:100A8000A4002A300A128A158C210A128A11242DF8
:100A900008304A064B04031D4E2D4F2DEA2D8316B8
:100AA00003132F0883120313A700A8012708F200DD
:100AB0002808F3000430F4000030F500AB300A12CF
:100AC0008A1555240A128A1172087304031D692DB0
:100AD0006A2DC62D83120313AB01AC0183120313DD
:100AE0002B08AB3E840083130008A7002708F20000
:100AF0002B080A128A15C5220A128A1101308312A4
:100B00000313AB070318AC0A0030AC072C08803A7B
:100B1000FF0080307F02031D8F2D04302B02031C49
:100B2000922D932D6E2D0A168A11F3270A128A111F
:100B30002230F6008830F700803083120313A700BC
:100B40002708F8000A128A11D1270A128A11E43004
:100B5000F6008830F700C03083120313A70027087F
:100B6000F8000A128A11D1270A128A114D30831215
:100B70000313A9001930A8004F30A700A70BBE2D02
:100B8000A80BBE2DA90BBE2D1130EB2D0A168A1114
:100B9000F3270A128A119830F6008830F700803067
:100BA00083120313A7002708F8000A128A11D1271D
:100BB0000A128A110E30F6008930F700C030831215
:100BC0000313A7002708F8000A128A11D1270A1276
:100BD0008A11B62D1030080083120313B6004C0A98
:100BE000031DF62D4D0A031DF62DF72D052EFC30A5
:100BF000F6008830F700C030A7002708F8000A1276
:100C00008A11D1270A128A111F2F15302606031DBB
:100C10000A2E0B2E0C2ECE012F303606031D112E60
:100C2000122E2C2E4C08FF3EA7004D080318013E43
:100C3000FF3EA8002808803A803C031D212E27088B
:100C40004E020318242E252E2C2E0130831203135E
:100C5000A7002708CE073B2E373083120313360632
:100C6000031D332E342E3B2E4E080319382E392EF9
:100C70003B2E0130CE02B701B8010A3083120313B4
:100C8000A7002708F2004E080A128A15A1210A12AD
:100C90008A11053E83120313A8002808B5003708FF
:100CA00035070A128A15B6210A128A118312031314
:100CB000A70037082A3E84002708831380000130EC
:100CC000B7070318B80A0030B8073808803AFF00A1
:100CD00080307F02031D6E2E0A303702031C712EF6
:100CE000722E3D2EC03083120313A7002708A400E4
:100CF0000A30F2000030F3004E08A800A9012808CD
:100D0000F4002908F5000A128A1552250A128A11E0
:100D10007208303E0A128A158C210A128A11C230DA
:100D200083120313A7002708A4002A080A128A15B1
:100D30008C210A128A11C33083120313A7002708DB
:100D4000A4002B080A128A158C210A128A11C430B9
:100D500083120313A7002708A4003A300A128A1549
:100D60008C210A128A11C53083120313A7002708A9
:100D7000A4002C080A128A158C210A128A11C63086
:100D800083120313A7002708A4002D080A128A154E
:100D90008C210A128A11C73083120313A700270877
:100DA000A4003A300A128A158C210A128A11C8301E
:100DB00083120313A7002708A4002E080A128A151D
:100DC0008C210A128A11C93083120313A700270845
:100DD000A4002F080A128A158C210A128A11CB301E
:100DE00083120313A7002708A40030080A128A15EB
:100DF0008C210A128A11CC3083120313A700270812
:100E0000A40031080A128A158C210A128A11CE30E8
:100E100083120313A7002708A40032080A128A15B8
:100E20008C210A128A11CF3083120313A7002708DE
:100E3000A40033080A128A158C210A128A110800AC
:100E400083120313AA0013302606031D282F292F0F
:100E50002A2FCF012F302A06031D2F2F302F402F8E
:100E600002304F020318352F362F402F0130A700D4
:100E70002708CF070A168A11F3270A128A114E2F64
:100E800037302A06031D452F462F4E2F4F080319D2
:100E90004A2F4B2F4E2F0130CF023A2F02308312B0
:100EA00003134F020318552F562F8F2F8030A700A2
:100EB0002708A4002A300A128A158C210A128A11E6
:100EC000831203134F08A70027075F3E8400831394
:100ED0000008F600840A00088403F7008230A900A5
:100EE0002908F8000A128A11D1270A128A118312DE
:100EF00003134F08A7002707613E840083130008EF
:100F0000F600840A00088403F700C230A90029080B
:100F1000F8000A128A11D1270A128A11CD2F023045
:100F20004F06031D942F952FCD2F4F08A70027079D
:100F30005D3E840083130008F600840A00088403E1
:100F4000F7008230A9002908F8000A128A11D12777
:100F50000A128A11831203134F08A7002707613E64
:100F6000840083130008F600840A00088403F70055
:100F7000C230A9002908F8000A128A11D1270A12E2
:100F80008A11C03083120313A7002708A4002A3057
:100F90000A128A158C210A128A11831203134F0830
:100FA0000800F20178080A128A1506220A128A112C
:100FB000EF2FF201F20A7708FF00760884000A1288
:100FC0008A1531210A128A110A128A1506220A127A
:100FD0008A110130F6070318F70A0030F70777087F
:100FE00083120313FF00760884000A128A15312148
:100FF0000A128A11003A031DFE2FFF2FD92F080075
:1010000020342034543449344D3445342034203491
:1010100020342034203445342034203453345034A8
:10102000003477346134693474342E342E342E34E1
:1010300066346F347234203436343034733465346B
:1010400063340034503461347334733477346F3420
:101050007234643420344334683461346E34673419
:10106000653464340034203459346F34753420349A
:10107000413472346534203442346C346F34633418
:101080006B34653464340034523465342D34453463
:101090006E3474346534723420344E3465347734AD
:1010A0002034503477346434003420346134743460
:1010B000743465346D34703474342034723465346F
:1010C0006D34613469346E34733400342034453403
:1010D0004E34543445345234203450344134533433
:1010E000533457344F34523444342034003423348E
:1010F0002034543449344D344534203420342034A1
:1011000020342034453420342034533450340034D7
:101110002034573452344F344E3447342034503412
:1011200041345334533457344F34523444340034FC
:10113000503461347334733477346F3472346434BC
:1011400020344334683461346E3467346534003499
:1011500020344C346F3467347334203443346C346B
:10116000653461347234653464342034003420349E
:101170005334753463346334653473347334663490
:1011800075346C346C3479342034003445344E3446
:10119000543445345234203450344134533453346D
:1011A00057344F3452344434003443346834613457
:1011B0006E3467346534203450346134733473349E
:1011C00077347234643400342034733475346334C7
:1011D0006334653473347334663475346C346C340E
:1011E0007934003443346C346534613472342034DF
:1011F0004C346F34673400344E346F3420344C3404
:101200006F346734733420340034563469346534B1
:10121000773420344C346F3467340034203446340F
:10122000613469346C3465346434003443342034BC
:1012300000344734313400344734323400344734D6
:101240003334003447343434003443344C340034C1
:1012500047344E340034433450340034473452342D
:101260000034FF1B3B2983137F1883170008840A6F
:101270000319FF0A08007F087F398A000408840ADE
:101280000319FF0A820005348934F2348834D534D6
:1012900088344F344E340034FF348316031314194A
:1012A000522953294D2911081F39031D582959293D
:1012B0004D2908008312031312149214FA30831676
:1012C000031392008C14831203131211080083126B
:1012D00003131F151F196D296E296A291E08F500B1
:1012E000831603131E08F4007508F3007408F20057
:1012F00008007E088A007F0882000A128A15792178
:101300000A128A158000840A04087D060319003435
:10131000FF0A0319FE0A7D2983120313A500F201B7
:1013200024080A128A1506220A128A15F201F20A04
:101330008312031325080A128A1506220A128A1537
:101340000800F500F401751CA629A729AB2972082D
:10135000F3007308F4070310F20D0310F50C750881
:10136000031DB329B429A32974080800F3006400FD
:10137000831603178C18BD29BE29B7297308831259
:1013800003178D003F30F2007208831603178C0597
:101390000C14831203170C08080000300A128A1577
:1013A000F2220A128A15F800780883120313A000AB
:1013B00020087F39F8007808A0002008F800780895
:1013C000F30000300A128A15E8210A128A15080073
:1013D000F4000A168A11B4270A128A15D0300A16A8
:1013E0008A11D1270A128A1574080A168A11D12780
:1013F0000A128A1573080A168A11D1270A128A1549
:101400000A168A11BD270A128A150800F5007218FB
:101410000A2A0E2A831203130915112A83120313B1
:101420000911750888008914A630F300F30B162AF9
:1014300000008312031389101B30F4009E30F30068
:10144000F30B202AF40B202A00000800F3000A12F4
:101450008A154D210A128A158316031391150A1253
:101460008A154D210A128A15831203131308F200FC
:101470007208F4007303031D3E2A3F2A432A831691
:1014800003139116462A831603139112111674083A
:101490000800F6007608F4007408F500592A0130B7
:1014A000F4007408F5070130F2070318F30A00305E
:1014B000F307730883120313FF00720884000A12F3
:1014C0008A1531210A128A15F400750884007408FF
:1014D000831380000008031D6E2A6F2A4F2A08001C
:1014E000F3007308031D752A762A7B2A83120313DF
:1014F00006083F39992A3F30831203130605F2008C
:101500003F3072060319852A862A8D2A7B08031923
:101510008A2A8B2A8D2AFB01762A3F300605F200A3
:101520003F307206031D952A962A982AFB01FB0A72
:101530003F3008000A168A11DC270A128A1500308B
:1015400083120313AB000130AA008630A900A0303B
:10155000A8000A128A1552230A128A150A128A153D
:10156000CD210A128A150A168A11A5270A128A1590
:101570000A168A119F270A128A150A128A155A21F9
:101580000A128A150B178B170800F400831603172D
:101590008C18CB2ACC2AC62A7408831203178D0014
:1015A00072088C003F30F3007308831603178C0514
:1015B0008312031303108B1FDE2ADF2AE02A031491
:1015C0008B13831603170C1555308D00AA308D0030
:1015D0008C140C1183120313031CEF2AF02AF12A36
:1015E0008B170800F6000A168A11B4270A128A150A
:1015F000D0300A168A11D1270A128A1576080A16DF
:101600008A11D1270A128A150A168A11C6270A12C8
:101610008A15D1300A168A11D1270A128A1500308C
:101620000A128A1526220A128A15F5007508F70093
:101630000A168A11BD270A128A1577080800831234
:1016400003138C1C242B252B4B2B0130F90703187B
:10165000FA0A0030FA07E2307906043003197A06F4
:10166000031D332B342B4A2BF901FA0152080319BD
:101670003A2B3B2B3E2B0130D2024A2B5208031D42
:10168000422B432B4A2B53080319472B482B4A2B39
:101690000130D3028C1071088A00700E8300FE0E98
:1016A0007E0E09008312031394152808AC00290844
:1016B000AD002A08AE002B08AF0002300310AC0DBD
:1016C000AD0DAE0DAF0DFF3E031D5E2B2F08A30029
:1016D0002E08A2002D08A1002C08A0000130A700B0
:1016E0003130A6002D30A5000030A4000A128A1562
:1016F0002F270A128A15831203132008FF3E831630
:101700000313930083120313941608008312031328
:10171000A30017302306031D8E2B8F2BC32BFF3006
:10172000CC00FF30CD00FF30A0002008E800A8303A
:10173000F6008830F7008030A0002008F8000A1278
:101740008A11D1270A128A15B730F6008830F700BF
:10175000C03083120313A0002008F8000A128A1177
:10176000D1270A128A154D3083120313A2001930B3
:10177000A1004F30A000A00BBB2BA10BBB2BA20BD9
:10178000BB2B1130C42B2230080083120313A50198
:10179000A601200821040319CE2BCF2B062CA4016F
:1017A000A40ADD2B01300310A00DA10DFF3E031D87
:1017B000D32B0130F6007608A407A11FE02BE12B04
:1017C000D22B01300310A50DA60DFF3E031DE22B09
:1017D00021082302031DEE2B20082202031CF12BFB
:1017E000F22BF92B2008A2022108031CA303A30259
:1017F000251401300310A10CA00CFF3E031DFA2B91
:101800000130A402031D052C062CE12B2608A100A3
:101810002508A000080083120313A0002008F6008A
:101820007608A100372C0130F4020030031CF503C8
:10183000F5027308F7007208F600F20A0319F30ABA
:101840007708FF00760884000A128A1531210A12EF
:101850008A15F800210884000130A1077808831355
:1018600080000008031D352C362C372C462C7408BC
:101870007504031D3C2C3D2C132C462C21088400A0
:10188000831380010130F6007608A1070130F402CD
:101890000030031CF503F502740A031D532C750A6E
:1018A000031D532C542C3E2C0800F800962C78086D
:1018B00084008313000803195E2C5F2C742C7308BA
:1018C00083120313FF00720884000A128A15312163
:1018D0000A128A15F6007808840083130008760639
:1018E0000319732C742C8C2C730883120313FF00C0
:1018F000720884000A128A1531210A128A15F6002C
:101900007808840083130008F70076087702F20055
:10191000F301031CF303A62C0130F6007608F80748
:101920000130F2070318F30A0030F3070130F40224
:101930000030031CF503F502740A031DA32C750A7D
:10194000031DA32CA42C572CF201F3010800C33073
:10195000F700CD30F600F60BAB2CF70BAB2CF201F9
:1019600033300A128A1506220A128A151B30F70034
:101970009E30F600F60BBA2CF70BBA2C0000F201E1
:1019800033300A128A1506220A128A15A630F6008A
:10199000F60BC82C0000F20133300A128A15062219
:1019A0000A128A15D32CD42C0000F20138300A1206
:1019B0008A1506220A128A15A630F600F60BDE2CCE
:1019C0000000F20101300A128A1506220A128A1555
:1019D000A630F600F60BEA2C0000F2010C300A12D9
:1019E0008A1506220A128A15A630F600F60BF62C86
:1019F000000008000130F600760883120313E807A0
:101A00000A306806031D052D062D072DE8010A3052
:101A1000F6007608F20068080A128A15A1210A1257
:101A20008A15053EF700770883120313A000A10171
:101A3000A201332D2108A03E84000008F60076089C
:101A4000F20020080A128A15C5220A128A150130EE
:101A5000F600760883120313A0070130A1070318CC
:101A6000A20A0030A2072108A03E840083130008C8
:101A7000031D3B2D3C2D1A2D4D08803AFF00803070
:101A80007F02031D452D09304C020318482D492DB6
:101A9000512D013083120313CC070318CD0A0030F7
:101AA000CD070800F801F51F562D572D5E2DF409BE
:101AB000F509F40A0319F50AF801F80AF31F612D74
:101AC000622D672DF209F309F20A0319F30A72086D
:101AD000730403196C2D6D2D9C2DF701F70A7B2DD6
:101AE00001300310F20DF30DFF3E031D712D013087
:101AF000F6007608F707F31F7E2D7F2D702D7308F3
:101B00007502031D852D72087402031C882D892D12
:101B10008F2D7208F4027308031CF503F5020130DF
:101B20000310F30CF20CFF3E031D902D0130F70261
:101B3000031D9B2D9C2D7F2D78080319A02DA12D11
:101B4000A62DF409F509F40A0319F50A7508F3003E
:101B50007408F200080002300A128A15F2220A12F2
:101B60008A1583120313A0002008C50001300A1251
:101B70008A15F2220A128A1583120313A000200884
:101B8000C60000300A128A15F2220A128A15831240
:101B90000313A0002008C7004508A000043003106C
:101BA000A00CFF3E031DCF2D20080339303EA100BD
:101BB0002108D40045080F39303EA0002008D50088
:101BC0004608A00004300310A00CFF3E031DE32DC7
:101BD00020080739303EA1002108D60046080F39F9
:101BE000303EA0002008D7004708A00004300310B2
:101BF000A00CFF3E031DF72D20080739303EA10041
:101C00002108D80047080F39303EA0002008D9002D
:101C1000DA01080083120313AB000030F6008830AD
:101C2000F7008030A8002808F8000A128A11D1278E
:101C30000A128A150A128A15C9260A128A158312EF
:101C400003132B08F6000030F700CB30A80028085B
:101C5000F8000A128A11D1270A128A15CE3083128F
:101C60000313A8002808A4000A30F2000030F30093
:101C70002708A900AA012908F4002A08F5000A1279
:101C80008A1597270A128A157208303E0A128A1599
:101C90008C210A128A15CF3083120313A80028085A
:101CA000A4000A30F2000030F3002708A900AA01BE
:101CB0002908F4002A08F5000A128A1552250A128A
:101CC0008A157208303E0A128A158C210A128A156A
:101CD00008000A128A15AB250A128A155430F20040
:101CE0000030F3000630F4000030F500A0300A1296
:101CF0008A150B240A128A15831203132408F20092
:101D00002508F3000230F4000030F500A6300A1276
:101D10008A150B240A128A150A30F2000030F300EB
:101D2000831203132608A700A8012708F400280837
:101D3000F5000A128A1597270A128A157208303E92
:101D400083120313A900290883160313A8000A307D
:101D5000F2000030F300831203132608A700A80145
:101D60002708F4002808F5000A128A1552250A12DD
:101D70008A157208303E83120313A90029088316BE
:101D80000313A900AA010A128A15FA240A128A1555
:101D900008000A128A15AB250A128A15C23083126E
:101DA0000313A6002608A40054080A128A158C21E1
:101DB0000A128A15C33083120313A6002608A40052
:101DC00055080A128A158C210A128A15C43083120A
:101DD0000313A6002608A4003A300A128A158C21A3
:101DE0000A128A15C53083120313A6002608A40020
:101DF00056080A128A158C210A128A15C6308312D7
:101E00000313A6002608A40057080A128A158C217D
:101E10000A128A15C73083120313A6002608A400ED
:101E20003A300A128A158C210A128A15C830831298
:101E30000313A6002608A40058080A128A158C214C
:101E40000A128A15C93083120313A6002608A400BB
:101E500059080A128A158C210A128A1508000030C6
:101E6000F6000030F5000030F4000030F30083127B
:101E7000031323082204210420040319402F412FB7
:101E80008E2FF701F70A512F0130F2000310A00D39
:101E9000A10DA20DA30DF20B462F0130F200720826
:101EA000F707A31F542F552F442F0130F2000310C2
:101EB000F30DF40DF50DF60DF20B572F2308270245
:101EC000031D6C2F22082602031D6C2F21082502FA
:101ED000031D6C2F20082402031C6F2F702F7F2FEF
:101EE0002008A4022108031C210FA5022208031CBC
:101EF000220FA6022308031C230FA702731401302C
:101F00000310A30CA20CA10CA00CFF3E031D802FFC
:101F10000130F702031D8D2F8E2F552F7608A30059
:101F20007508A2007408A1007308A00008008312BD
:101F30000313A101F31F9D2F9E2FA52FF209F30973
:101F4000F20A0319F30AA101A10AF51FA82FA92F6C
:101F5000B22FF409F509F40A0319F50A0130F60065
:101F60007608A106A201A301720873040319B92F10
:101F7000BA2FF12FA001A00AC82F01300310F20DD3
:101F8000F30DFF3E031DBE2F0130F6007608A007BB
:101F9000F31FCB2FCC2FBD2F01300310A20DA30DAB
:101FA000FF3E031DCD2F73087502031DD92F720844
:101FB0007402031CDC2FDD2FE42F7208F402730877
:101FC000031CF503F502221401300310F30CF20C8C
:101FD000FF3E031DE52F0130A002031DF02FF12F5E
:101FE000CC2F21080319F52FF62FFB2FA209A309E7
:101FF000A20A0319A30A2308F3002208F20008002A
:102F3E008316031306083F38860008008316031312
:102F4E009F17831203131F14080064008001840A64
:102F5E000406031900340406AD2F0A128A154D21FA
:102F6E000A168A1183160313111408000A128A1501
:102F7E004D210A168A1183160313111508000A161D
:102F8E008A11BD270A168A110A168A11B4270A1643
:102F9E008A110800F2000A128A154D210A168A11AA
:102FAE00720883120313930008008316031388011B
:102FBE00091189100A128A15A7240A168A11080007
:102FCE00283489342E348934193489341C348934A4
:102FDE001F34893422348934F20101300A128A15E1
:102FEE0006220A168A11A630F600F60BFC2F0000F8
:022FFE000800C9
:08400000FF3FFF3FFF3FFF3FC0
:02400E00FB3F76
:00000001FF
